:100000000C9432010C9463010C9463010C94630111
:100010000C9463010C9463010C9463010C946301D0
:100020000C9463010C9463010C9463010C946301C0
:100030000C9463010C9463010C9463010C946301B0
:100040000C9463010C9463010C9463010C946301A0
:100050000C9463010C9463010C9463010C94DC0612
:100060000C9463010C94A6060C947C060C9463011A
:100070000C9463010C9463010C9463010C94630170
:100080000C9463010C9463010C9463010C94630160
:100090000C9463010C9463010C9463010C94630150
:1000A0000C9463010C9463010C9463010C94630140
:1000B0000C9463010C9463010C9463010C94630130
:1000C0000C9463010C9463010C9463010C94630120
:1000D0000C9463010C9463010C9463010C94630110
:1000E0000C9463010C94D4010C9407030C944B05FD
:1000F0000C9414030C9422030C9481030C94FF02BF
:100100000C94E8020C9467020C9418030C943A03C4
:100110000C943E030C942C030C941A020C9434039C
:100120000C9403030C94E2010C940E030C94260728
:100130000C94B1010C94C0010C9480030C948401C4
:100140000C940B030C9430030C943D060C94450561
:100150000C94ED020C9426030C941E0300000A0B71
:1001600002090C0D0E080703040100000000000046
:10017000000000000000000000000000000000007F
:10018000000000000000000012111000000000003C
:10019000000000000000000000000000000000005F
:1001A000000000002200250028002B002E00310056
:1001B000340002010000050108010B0100002100CC
:1001C000240027002A002D00300033000101000028
:1001D000040107010A0105050505070508080808C7
:1001E000020202020A0A08080404040401010101CF
:1001F00001010101030303030303030304070707CA
:100200000C0C0C0C0C0C0C0C02020202060606066E
:10021000060606060B0B0B0B0B0B0B0B010210203B
:10022000200808102040102040800201020108042C
:1002300002010102040810204080804020100804C0
:100240000201800402018040201008040201080419
:10025000020101020408102040800102040810205D
:100260004080260711241FBECFEFD1E2DEBFCDBFF5
:1002700000E00CBF12E0A0E0B2E0EAE6F7E100E047
:100280000BBF02C007900D92A434B107D9F723E049
:10029000A4E4B2E001C01D92A432B207E1F711E07C
:1002A000C2E3D1E000E006C021970109802FFE01E2
:1002B0000E94AB0BC133D10780E00807A9F70E9469
:1002C00090070C94B30B0C94000090E0FC01E45EEA
:1002D000FD4F24918A529E4FFC018491882399F00E
:1002E00090E0880F991FFC01E454FE4FA591B49152
:1002F000FC01EE55FE4F859194918FB7F894EC91E7
:10030000E22BEC938FBF0895AF92BF92CF92DF9212
:10031000EF92FF920F931F93CF93DF936C017B01BA
:100320008B01040F151FEB015E01AE18BF08C0174B
:10033000D10759F06991D601ED91FC910190F081BE
:10034000E02DC6011995892B79F7C501DF91CF9171
:100350001F910F91FF90EF90DF90CF90BF90AF90E3
:100360000895FC01538D448D252F30E0842F90E0BB
:10037000821B930B541710F0CF96089501970895A0
:10038000FC01918D828D981761F0A28DAE0FBF2F69
:10039000B11D5D968C91928D9F5F9F73928F90E0BF
:1003A00008958FEF9FEF0895FC01918D828D98172E
:1003B00031F0828DE80FF11D858D90E008958FEF6B
:1003C0009FEF0895FC01918D228D892F90E0805C34
:1003D0009F4F821B91098F739927089585E592E0BD
:1003E0000E94E20121E0892B09F420E0822F089588
:1003F000FC01A48DA80FB92FB11DA35ABF4F2C919A
:10040000848D90E001968F739927848FA689B78990
:100410002C93A089B1898C91837080648C93938D87
:10042000848D981306C00288F389E02D80818F7D2A
:1004300080830895EF92FF920F931F93CF93DF93E2
:10044000EC0181E0888F9B8D8C8D98131AC0E88910
:10045000F989808185FF15C09FB7F894EE89FF89DF
:100460006083E889F98980818370806480839FBF7D
:1004700081E090E0DF91CF911F910F91FF90EF907D
:100480000895F62E0B8D10E00F5F1F4F0F7311278D
:10049000E02E8C8D8E110CC00FB607FCFACFE889C8
:1004A000F989808185FFF5CFCE010E94F801F1CF57
:1004B000EB8DEC0FFD2FF11DE35AFF4FF0829FB73C
:1004C000F8940B8FEA89FB8980818062CFCFCF932C
:1004D000DF93EC01888D8823B9F0AA89BB89E8896C
:1004E000F9898C9185FD03C0808186FD0DC00FB612
:1004F00007FCF7CF8C9185FFF2CF808185FFEDCF90
:10050000CE010E94F801E9CFDF91CF91089580E0FC
:1005100090E0892B29F00E94EE0181110E940000D9
:1005200080E090E0892B49F080E090E0892B29F071
:100530000E94000081110E94000080E090E0892B61
:1005400049F080E090E0892B29F00E9400008111A1
:100550000E94000080E090E0892B49F080E090E06C
:10056000892B29F00E94000081110C94000008954D
:10057000282F30E0F901E45AFE4F9491F901E45E2E
:10058000FD4F44912A523E4FF9012491222309F450
:1005900035C0992311F191509231F8F4E92FF0E030
:1005A0008827EA52FD4F8F4F0C94AB0B07030B03C8
:1005B000E802FF020303ED020E03140318031E03F7
:1005C000220326032C033003ED0234033A033E03D7
:1005D000809180008F7780938000E22FF0E0EE0F13
:1005E000FF1FEE55FE4FA591B4918FB7F894EC9193
:1005F000611148C040954E234C938FBF0895809160
:1006000080008F7DE8CF80918000877FE4CF84B524
:100610008F7784BDE2CF84B58F7DFBCF8091B00012
:100620008F778093B000D9CF8091B0008F7DF9CFC4
:10063000809190008F7780939000CFCF8091900031
:100640008F7DF9CF80919000877FF5CF8091A000BA
:100650008F778093A000C1CF8091A0008F7DF9CFCC
:100660008091A000877FF5CF809120018F778093C4
:100670002001B3CF809120018F7DF9CF809120019F
:10068000877FF5CF4E2BB8CF90917B00977F9093CB
:100690007B008653806480937C0080917A00806424
:1006A00080937A0080917A0086FDFCCF809178005B
:1006B0009091790008953FB7F89480914B02909102
:1006C0004C02A0914D02B0914E0226B5A89B05C0E8
:1006D0002F3F19F00196A11DB11D3FBFBA2FA92FC1
:1006E000982F8827BC01CD01620F711D811D911DBE
:1006F00042E0660F771F881F991F4A95D1F708952A
:10070000089590E080E008950F931F93CF93DF93B7
:10071000EC010E945B0309851A852B853C85601BD3
:10072000710B820B930B088119812A813B81601721
:1007300071078207930780F0ED81FE81309709F001
:1007400019959C8181E0892788879F830E945B039C
:1007500069877A878B879C878885DF91CF911F91E6
:100760000F910895FB0101900020E9F73197AF0147
:10077000461B570BDC01ED91FC910280F381E02DCB
:1007800019948F929F92AF92BF920F931F93CF9322
:10079000DF93CDB7DEB7A1970FB6F894DEBF0FBEDB
:1007A000CDBF19A2423008F44AE08E010F5D1F4F01
:1007B000842E912CB12CA12CA50194010E94890BAF
:1007C000E62FB901CA01EA3004F5E05DD801EE93E5
:1007D0008D01232B242B252B79F790E080E01097B7
:1007E00029F0BD018CE093E00E94B203A1960FB600
:1007F000F894DEBF0FBECDBFDF91CF911F910F9157
:10080000BF90AF909F908F900895E95CDFCFCF931A
:10081000DF93EC0160E08E810E94B80261E08E817E
:100820000E94B80260E08E810E94B8028BE891E0DD
:100830000197F1F7DF91CF910895CF92DF92EF9278
:10084000FF920F931F93CF93DF936C017C0187E09E
:10085000E80EF11CD0E0C0E0062F10E0B8010C2E2D
:1008600002C0759567950A94E2F76170F70181916E
:100870007F010E94B8022196C430D10579F7C601E4
:10088000DF91CF911F910F91FF90EF90DF90CF906C
:100890000C940704CF92DF92EF92FF920F931F9375
:1008A000CF93DF93EC01F62E642F8C810E94B80267
:1008B0008D818F3F19F060E00E94B8020F2D10E08B
:1008C0008F8584FF25C06E0187E0C80ED11CF12CF6
:1008D000E12CB8010E2C02C0759567950A94E2F7D9
:1008E0006170F60181916F010E94B802FFEFEF1A6B
:1008F000FF0A88E0E816F10461F7CE01DF91CF919D
:100900001F910F91FF90EF90DF90CF900C94070410
:10091000B80184E0759567958A95E1F7CE010E944C
:100920001D046F2DCE01DF91CF911F910F91FF908C
:10093000EF90DF90CF900C941D0440E0682F8CE086
:1009400093E00C944A04CF93DF93823029F4909182
:100950001B03986090931B0380931F031092200346
:1009600080E48093210380E18093220380E58093DB
:100970002303809110030E946501809111038F3F32
:1009800011F00E946501809112030E946501CCE084
:10099000D3E09E012C50334080911B0384FD0AC09C
:1009A00084E090E02196281739073CF48E810E945C
:1009B0006501EFCF88E090E0F5CF8BE39DE00197F4
:1009C000F1F760E0809110030E94B80260E080912E
:1009D00012030E94B802809111038F3F19F060E06A
:1009E0000E94B80280911B0384FD39C063E08CE053
:1009F00093E00E941D04CBE4D6E4CE010197F1F709
:100A000063E08CE093E00E941D042197F1F763E01E
:100A10008CE093E00E941D0483E592E00197F1F7DA
:100A200062E08CE093E00E941D0480911B038062D1
:100A30000E949D0484E080931C038CE00E949D042E
:100A400081E00E949D048BE39FE10197F1F782E032
:100A500080931D0386E0DF91CF910C949D0480620A
:100A60000E949D048BE496E40197F1F780911B03AB
:100A700080620E949D0483E592E00197F1F78091E6
:100A80001B0380620E949D04D0CF41E00E944A0473
:100A900081E090E008958F929F92AF92BF92CF92A3
:100AA000DF92EF92FF9287E30E944403BC01990F0B
:100AB000880B990B0E94620A20E030E040E850E485
:100AC0000E94170B20E030E040E251E40E94BF0991
:100AD00060934F02709350028093510290935202A0
:100AE000E0911F03E23008F046C0E150F0E0E45F1F
:100AF000FC4F848980680E949D046EE172E08CE066
:100B000093E00E94B203C0904F02D0905002E09058
:100B10005102F0905202A7019601C701B6010E944E
:100B2000840B64E272E081111AC046015701E89417
:100B3000B7F82FEF3FEF4FE75FE7C501B4010E9421
:100B4000840B81111AC02FEF3FEF4FE75FE7C5011C
:100B5000B4010E94BA09181684F468E272E08CE0CD
:100B600093E0FF90EF90DF90CF90BF90AF909F9079
:100B70008F900C94B203E1E0B9CF2FEF3FEF4FE736
:100B80005FE4C701B6010E94120B18161CF46CE258
:100B900072E0E5CF2FEF3FEF4FE75FECC701B60103
:100BA0000E94BA0987FDF3CF20E030E0A901C70118
:100BB000B6010E94BA0987FF0AC041E06DE28CE0ED
:100BC00093E00E944A04F7FAF094F7F8F0942AE0D0
:100BD00037ED43EA5BE3C701B6010E944E094B01C2
:100BE0005C010E94310A6B017C010E94600A9B013A
:100BF000AC01C501B4010E944D094B015C014AE002
:100C0000C701B6010E94C10341E06EE28CE093E0AF
:100C10000E944A0420E030E040E251E4C501B40102
:100C20000E94170B4B015C010E94310A6B01F12CF1
:100C3000E12C4AE0C701B6010E94C103C701B60119
:100C40000E94600A9B01AC01C501B4010E944D09DC
:100C500020E030E040E251E40E94170B0E94310A8C
:100C600090E080E04AE0FF90EF90DF90CF90BF905F
:100C7000AF909F908F900C94C103CF92DF92EF9230
:100C8000FF9286E30E9444039093450280934402BE
:100C9000E1E080911F038111E0E0E195F0E0E45F85
:100CA000FC4F848980680E949D0460E372E08CE0C0
:100CB00093E00E94B203C0904402D09045020D2CF4
:100CC000000CEE08FF084AE0C701B601F7FE0EC0AF
:100CD00041E06DE28CE093E00E944A0466277727AA
:100CE000CB016C197D098E099F094AE0FF90EF90B6
:100CF000DF90CF900C94C1031F920F920FB60F920A
:100D000011240BB60F922F933F934F935F936F93E2
:100D10007F938F939F93AF93BF93EF93FF9385E55B
:100D200092E00E94F801FF91EF91BF91AF919F91E6
:100D30008F917F916F915F914F913F912F910F9084
:100D40000BBE0F900FBE0F901F9018951F920F9221
:100D50000FB60F9211240BB60F922F938F939F9380
:100D6000EF93FF93E0916502F09166028081E0913C
:100D70006B02F0916C0282FD1DC0908180916E0229
:100D80008F5F8F7320916F02821741F0E0916E02A6
:100D9000F0E0EB5AFD4F958F80936E02FF91EF913B
:100DA0009F918F912F910F900BBE0F900FBE0F90C0
:100DB0001F9018958081F2CF1F920F920FB60F925D
:100DC00011242F933F938F939F93AF93BF93809161
:100DD000470290914802A0914902B0914A02309195
:100DE000460223E0230F2D3758F50196A11DB11DB2
:100DF000209346028093470290934802A0934902B1
:100E0000B0934A0280914B0290914C02A0914D0206
:100E1000B0914E020196A11DB11D80934B0290939B
:100E20004C02A0934D02B0934E02BF91AF919F919F
:100E30008F913F912F910F900FBE0F901F9018959B
:100E400026E8230F0296A11DB11DD2CFE5E5F2E001
:100E50001382128288EE93E0A0E0B0E08483958351
:100E6000A683B78384E092E09183808385EC90E051
:100E70009587848784EC90E09787868780EC90E064
:100E8000918B808B81EC90E0938B828B82EC90E055
:100E9000958B848B86EC90E0978B868B118E128ECF
:100EA000138E148EECE0F3E01382128286E192E05E
:100EB000918380838CE084838FEF85838BE08683AE
:100EC0008FE1878380E2808781E2818782E2828767
:100ED0001386148615861686178681E00E94A30461
:100EE000EFEFF2E080E49DE0A3E0B0E08083918347
:100EF000A283B38381E084832BE435E036832583AA
:100F0000E2EFF2E040EA56E861E070E040835183AE
:100F10006283738384838DE396E09683858308954B
:100F2000789484B5826084BD84B5816084BD85B5C4
:100F3000826085BD85B5816085BD80916E008160D0
:100F400080936E0010928100809181008260809376
:100F50008100809181008160809381008091800078
:100F60008160809380008091B10084608093B100A3
:100F70008091B00081608093B00080919100826088
:100F80008093910080919100816080939100809185
:100F900090008160809390008091A1008260809396
:100FA000A1008091A10081608093A1008091A000A8
:100FB00081608093A0008091210182608093210153
:100FC00080912101816080932101809120018160C5
:100FD0008093200180917A00846080937A008091D0
:100FE0007A00826080937A0080917A008160809399
:100FF0007A0080917A00806880937A001092C10014
:10100000E0916502F091660282E08083E0916102E6
:10101000F09162021082E0916302F09164028FEC21
:10102000808310926D02E0916902F0916A0286E07D
:101030008083E0916702F091680280818061808303
:10104000E0916702F0916802808188608083E0917E
:101050006702F0916802808180688083E091670276
:10106000F091680280818F7D808367E372E085E57F
:1010700092E00E94B20360E472E085E592E00E9493
:10108000B20382E00E94A30481E00E949D048BE3EE
:101090009FE10197F1F787E10E94650188E10E94D5
:1010A000650189E10E946501109254021092530279
:1010B0000E945B03609308037093090380930A0303
:1010C00090930B03C1E0C09306030E945B036093FF
:1010D000FB027093FC028093FD029093FE02C0938A
:1010E000F902C2E0D0E001E010E093E0E92EF12C3B
:1010F00080910603882321F08FEF92E00E94840301
:101100008091F902882321F082EF92E00E9484030B
:1011100080915302909154028130910561F150F019
:101120008230910509F459C0039709F484C00E94E4
:101130008702DECF60E087E10E94B80261E089E1CA
:101140000E94B80260E088E10E94B80220E030E02E
:1011500040E951E460914F02709150028091510238
:10116000909152020E94120B18160CF71093540221
:1011700000935302DCCF60E087E10E94B80260E098
:1011800089E10E94B80261E088E10E94B802809083
:101190004F0290905002A0905102B090520220E075
:1011A00030E048EC51E4C501B4010E94120B18165E
:1011B00024F4D0935402C093530220E030E040E97D
:1011C00051E4C501B4010E94BA0918160CF4AFCF5E
:1011D0001092540210925302AACF61E087E10E945C
:1011E000B80260E089E10E94B80260E088E10E94F4
:1011F000B80280904F0290905002A0905102B0909F
:10120000520220E030E040E252E4C501B4010E9405
:10121000120B181624F4F0925402E092530220E0CC
:1012200030E048EC51E4C501B4010E94BA09181637
:101230000CF09CCF7CCF61E087E10E94B80261E0B6
:1012400089E10E94B80260E088E10E94B8020E9431
:101250005B032B013C0184EF882E99249394A12CED
:10126000B12C0E945B036419750986099709683ED1
:10127000734081059105A8F321E0821A9108A10825
:10128000B10888EE480E83E0581E611C711C811461
:101290009104A104B10429F769CF5058BB27AA27AC
:1012A0000E9465090C94D80A0E94CA0A38F00E946C
:1012B000D10A20F039F49F3F19F426F40C94C70AA0
:1012C0000EF4E095E7FB0C94C10AE92F0E94E90AAD
:1012D00058F3BA17620773078407950720F079F46B
:1012E000A6F50C940B0B0EF4E0950B2EBA2FA02D47
:1012F0000B01B90190010C01CA01A0011124FF27C3
:10130000591B99F0593F50F4503E68F11A16F040BD
:10131000A22F232F342F4427585FF3CF46953795BC
:101320002795A795F0405395C9F77EF41F16BA0B81
:10133000620B730B840BBAF09150A1F0FF0FBB1F2F
:10134000661F771F881FC2F70EC0BA0F621F731F78
:10135000841F48F4879577956795B795F7959E3FD5
:1013600008F0B0CF9395880F08F09927EE0F979566
:10137000879508950E949D0A08F481E008950E94CF
:10138000D3090C94D80A0E94D10A58F00E94CA0AC4
:1013900040F029F45F3F29F00C94C10A51110C94DC
:1013A0000C0B0C94C70A0E94E90A68F39923B1F365
:1013B000552391F3951B550BBB27AA27621773077B
:1013C000840738F09F5F5F4F220F331F441FAA1F0F
:1013D000A9F335D00E2E3AF0E0E832D091505040CB
:1013E000E695001CCAF72BD0FE2F29D0660F771F79
:1013F000881FBB1F261737074807AB07B0E809F05F
:10140000BB0B802DBF01FF2793585F4F3AF09E3FE3
:10141000510578F00C94C10A0C940C0B5F3FE4F377
:10142000983ED4F3869577956795B795F7959F5F26
:10143000C9F7880F911D9695879597F90895E1E072
:10144000660F771F881FBB1F621773078407BA07D1
:1014500020F0621B730B840BBA0BEE1F88F7E0952C
:1014600008950E94F10A88F09F5798F0B92F9927A4
:10147000B751B0F0E1F0660F771F881F991F1AF07F
:10148000BA95C9F714C0B13091F00E940B0BB1E0CE
:1014900008950C940B0B672F782F8827B85F39F0CD
:1014A000B93FCCF3869577956795B395D9F73EF418
:1014B00090958095709561957F4F8F4F9F4F0895C0
:1014C000E89409C097FB3EF49095809570956195DE
:1014D0007F4F8F4F9F4F9923A9F0F92F96E9BB2794
:1014E0009395F695879577956795B795F111F8CF10
:1014F000FAF4BB0F11F460FF1BC06F5F7F4F8F4F7B
:101500009F4F16C0882311F096E911C0772321F070
:101510009EE8872F762F05C0662371F096E8862F08
:1015200070E060E02AF09A95660F771F881FDAF75F
:10153000880F9695879597F90895990F0008550F8C
:10154000AA0BE0E8FEEF16161706E807F907C0F049
:1015500012161306E407F50798F0621B730B840B51
:10156000950B39F40A2661F0232B242B252B21F42B
:1015700008950A2609F4A140A6958FEF811D811DCB
:10158000089597F99F6780E870E060E008959FEF05
:1015900080EC089500240A9416161706180609060A
:1015A000089500240A9412161306140605060895D9
:1015B000092E0394000C11F4882352F0BB0F40F461
:1015C000BF2B11F460FF04C06F5F7F4F8F4F9F4FA1
:1015D000089557FD9058440F551F59F05F3F71F023
:1015E0004795880F97FB991F61F09F3F79F087958A
:1015F0000895121613061406551FF2CF4695F1DF13
:1016000008C0161617061806991FF1CF86957105A2
:10161000610508940895E894BB2766277727CB01D6
:1016200097F908950E949D0A08F48FEF08950E948B
:101630002A0B0C94D80A0E94CA0A38F00E94D10AD8
:1016400020F0952311F00C94C10A0C94C70A1124C0
:101650000C940C0B0E94E90A70F3959FC1F3950F4F
:1016600050E0551F629FF001729FBB27F00DB11D26
:10167000639FAA27F00DB11DAA1F649F6627B00DB6
:10168000A11D661F829F2227B00DA11D621F739F9F
:10169000B00DA11D621F839FA00D611D221F749FAD
:1016A0003327A00D611D231F849F600D211D822FF4
:1016B000762F6A2F11249F5750409AF0F1F088231B
:1016C0004AF0EE0FFF1FBB1F661F771F881F915048
:1016D0005040A9F79E3F510580F00C94C10A0C942C
:1016E0000C0B5F3FE4F3983ED4F3869577956795AE
:1016F000B795F795E7959F5FC1F7FE2B880F911D72
:101700009695879597F908950E949D0A880B990BE5
:101710000895A1E21A2EAA1BBB1BFD010DC0AA1F32
:10172000BB1FEE1FFF1FA217B307E407F50720F04A
:10173000A21BB30BE40BF50B661F771F881F991FC5
:101740001A9469F760957095809590959B01AC010E
:10175000BD01CF010895EE0FFF1F881F8BBF0790BB
:0A176000F691E02D1994F894FFCFE4
:10176A00000000001A028401B1016702E201C0010F
:10177A00D4010000000045058401810380037465DB
:10178A006D703A006E616E00696E66006F76660073
:10179A0050484F544F3A005374617274696E67002F
:0417AA000D0A000024
:00000001FF
